:020000040800F2
:10000000C807002089010008910100089301000839
:100010009501000897010008990100080000000000
:100020000000000000000000000000009B0100082C
:100030009D010008000000009F010008A1010008C8
:10004000A3010008A3010008A3010008A301000800
:10005000A3010008A3010008A3010008A3010008F0
:10006000A3010008A3010008A3010008A3010008E0
:10007000A3010008A3010008A3010008A3010008D0
:10008000A3010008A3010008A3010008A3010008C0
:10009000A3010008A3010008A3010008A3010008B0
:1000A000A3010008A3010008A3010008A3010008A0
:1000B000C50A0008A3010008A3010008A301000865
:1000C000A3010008A3010008A3010008A301000880
:1000D000A3010008950B00086D0C0008A30100089F
:1000E000A3010008A3010008A301000800F002F822
:1000F00000F03AF80AA090E8000C82448344AAF188
:100100000107DA4501D100F02FF8AFF2090EBAE885
:100110000F0013F0010F18BFFB1A43F0010318473B
:100120001810000038100000103A24BF78C878C1B9
:10013000FAD8520724BF30C830C144BF04680C60ED
:10014000704700000023002400250026103A28BF35
:1001500078C1FBD8520728BF30C148BF0B60704739
:100160001FB51FBD10B510BD00F037F91146FFF7E0
:10017000F7FF00F0DDFE00F055F903B4FFF7F2FFE2
:1001800003BC00F05DF900000948804709480047BA
:10019000FEE7FEE7FEE7FEE7FEE7FEE7FEE7FEE737
:1001A000FEE7FEE704480549054A064B7047000094
:1001B000750A0008ED000008C8010020C8070020EB
:1001C000C8030020C803002040EA0103024630B5FE
:1001D0009B0710D14FF0013400E008C208C91D1B75
:1001E0009D4315EAC41FF8D013F0FF0102F8011B6C
:1001F0000DD01B0AF8E711F8013B002B02F8013B78
:1002000005D011F8013B002B02F8013BF3D130BDC2
:1002100010B5431C02E010F8011B71B18107FAD13F
:100220004FF0013202C88C1A8C4314EAC211F9D083
:10023000C01A0A0603D0C01E10BDC01A10BD0A04A1
:1002400001D0801E10BD0902FCD0401E10BD421E10
:1002500012F8013F002BFBD111F8013B002B02F8F3
:10026000013BF9D17047032A40F2308010F0030CB3
:1002700000F0158011F8013BBCF1020F624498BFF9
:1002800011F801CB00F8013B38BF11F8013BA2F196
:10029000040298BF00F801CB38BF00F8013B11F011
:1002A000030300F06880083AC0F0088051F8043B6E
:1002B000083A51F804CBA0E80810F5E7121D5CBF1E
:1002C00051F8043B40F8043BAFF30080D20724BF51
:1002D00011F8013B11F801CB48BF11F8012B24BFE5
:1002E00000F8013B00F801CB48BF00F8012B704734
:1002F0004FF0013C50F8042B51F8043B9A4221D1B5
:10030000A2EB0C03934313EACC1317D150F8042B40
:1003100051F8043B9A4215D1A2EB0C03934313EA24
:10032000CC130BD150F8042B51F8043B9A4209D15D
:10033000A2EB0C03934313EACC13DBD04FF0000085
:10034000704700BFD01A01BAB1FA81F101F018016B
:1003500022FA01F0CB40C1F12001DBB2C0B2C01AD9
:100360002CFA01F3D11A914311EAC311E6D1704777
:1003700070477047704710B5203AC0F00B80B1E865
:100380001850203AA0E81850B1E81850A0E81850CA
:10039000BFF4F5AF5FEA027C24BFB1E81850A0E8D3
:1003A000185044BF18C918C0BDE810405FEA827CED
:1003B00024BF51F8043B40F8043B08BF7047D20704
:1003C00028BF31F8023B48BF11F8012B28BF20F8A5
:1003D000023B48BF00F8012B7047754600F02CF82F
:1003E000AE4605006946534620F00700854618B022
:1003F00020B5FFF7D7FEBDE820404FF000064FF0D4
:1004000000074FF000084FF0000B21F00701AC4649
:10041000ACE8C009ACE8C009ACE8C009ACE8C00968
:100420008D46704710B50446AFF300802046BDE806
:100430001040FFF7A2BE000000487047680100208E
:1004400001491820ABBEFEE72600020070470000FD
:1004500008B50121182000F04FFA10208DF8030094
:100460004002ADF8000003208DF8020069460548FF
:1004700000F002F900F0A0F84FF48051024800F0BB
:1004800057F908BD00100140000C01407CB5002068
:100490000090019000F090F82A4D4FF480542146CE
:1004A000284600F043F9142000F0A8F82146284619
:1004B00000F03EF900F070F872B66421002000F000
:1004C000D9FC214E30B36421012000F0D3FC38B3B5
:1004D0006421002000F0CEFC40B300246D4600F003
:1004E00035F82855641C052CF9DB62B69DF8000030
:1004F0009DF801109DF8033042189DF802100B443E
:100500001A44D3B29DF80420934215D1A2B1318090
:1005100070807CBD62B64FF0FF30308070807CBD53
:1005200062B66FF00100308070807CBD62B66FF003
:100530000200308070807CBD6FF0030030807080DE
:100540007CBD0000000C0140000000202DE9F041BE
:10055000002400250F4F4FF480566421012000F045
:1005600089FCA8B1232000F039F86006040E31465A
:10057000384600F0D4F828B144F00104642100208A
:1005800000F078FC6D1C082DE7DB2046BDE8F0810B
:100590000020FBE7000C014008B54FF48050ADF897
:1005A000000048208DF803006946024800F064F816
:1005B00008BD0000000C014008B54FF48050ADF8B4
:1005C000000010208DF8030003208DF8020069461A
:1005D000014800F051F808BD000C014010B54FF083
:1005E0008044A28CC2F57A73A18C914201D3891AFE
:1005F00000E0194489B28142F6D310BD00B502462D
:1006000000F094FD014600F091FD401A9042FAD3AB
:1006100000BD0000F8B50121042000F06DF94FF491
:100620000070ADF8000018258DF8035003208DF8F8
:100630000200104E6946304600F01EF83115ADF844
:10064000001004248DF803406946304600F014F889
:10065000ADF800408DF803506946304600F00CF8C4
:100660000820ADF800008DF803406946304600F0E0
:1006700003F8F8BD000801402DE9F0410022CC78D4
:1006800004F00F03E40601D58C7823430C784FF077
:100690000F0714F0FF0F4FF0010C1CD005680CFA87
:1006A00002F40E882640A64211D1960007FA06F8F9
:1006B00025EA080503FA06F848EA0505CE78282E4B
:1006C00002D0482E02D002E0446100E00461521CD6
:1006D000082AE4D305600A88FF2A1ED9456800224B
:1006E00002F108060CFA06F40E882640A64210D144
:1006F000960007FA06F825EA080503FA06F848EA1C
:100700000505CE78282E00D14461CE78482E00D140
:100710000461521C082AE3D34560BDE8F08102461B
:10072000002092680A4200D0012070474161704762
:100730000161704770B5154604461A46AA2020701C
:100740006170A2702946E01CFFF78DFD204600F085
:1007500005F804F8430F5520607070BD10B50246CF
:10076000507893785840002103E05418E4786040B2
:10077000491C8B42F9DC10BD10B5074CE17800290B
:1007800007D045220549FFF76EFD0020E0700120EB
:1007900010BD002010BD0000080000202001002036
:1007A00070B50446234E8021304600F0BBFA002885
:1007B000F9D02178304600F059FB8021304600F016
:1007C000B1FA0028F9D06178304600F04FFB802163
:1007D000304600F0A7FA0028F9D0A178304600F0A2
:1007E00045FB00250BE08021304600F09BFA0028F5
:1007F000F9D06019C178304600F038FB6D1CA07844
:10080000A842F0DC8021304600F08CFA0028F9D0B4
:1008100094F84310304600F029FB8021304600F068
:1008200081FA0028F9D094F844103046BDE87040B1
:1008300000F01CBB0044004070B50F23C2780126B5
:100840000178002A1ED0144A126802F4E062C2F550
:10085000E062120AC2F10404D3404578A5408278D0
:100860001A402A43120101F1E02181F800240078A6
:1008700000F01F018E404009800000F1E020C0F828
:10088000006170BD01F01F0086404809800000F142
:10089000E020C0F8806170BD0CED00E070B504464A
:1008A000084D0AE08021284600F03CFA0028F9D0E3
:1008B00014F8011B284600F0D9FA20780028F1D15D
:1008C00070BD00000038014010B5FFF7E7FFBDE83C
:1008D000104001A0FFF7E2BF0D0A0000054A002901
:1008E00003D0D1690143D1617047D1698143D1619E
:1008F0007047000000100240054A002903D09169AA
:100900000143916170479169814391617047000093
:100910000010024010B5264A516801F00C01254B29
:10092000002927D0042927D0082927D0036051683F
:1009300001F0F0010909204B5C5C0168E140416075
:10094000546804F4E064240A1C5D21FA04F4846011
:10095000546804F46054E40A1B5DD940C1605268D5
:1009600002F44042920B144B1B1F9A5CB1FBF2F154
:10097000016110BD0360DAE70360D8E7516801F454
:100980007011536803F48033022404EB914133B1B6
:1009900053689B0307D5094B59430160C7E7074BD1
:1009A00059430160C3E7034B59430160BFE70000AF
:1009B0000010024000127A001000002000093D00E3
:1009C000AFF300800CB50022019200922748016825
:1009D00041F4803101604FF4A063016801F40031FB
:1009E00000910199491C0191009911B9019999420D
:1009F000F3D10168890302D50121009100E0009242
:100A00000099012930D11A490A6842F010020A609F
:100A10000A6822F007020A600A6842F002020A60CD
:100A20004168416041684160416841F480614160D2
:100A3000416821F47C114160416841F4E811416052
:100A4000016841F08071016001688901FCD541684D
:100A500021F003014160416841F0020141604168B9
:100A6000C1F381010229FAD10CBD0000001002403F
:100A70000020024010B50F48016841F001010160FB
:100A800041680D4A1140416001680C4A1140016003
:100A9000016821F480210160416821F4FE01416078
:100AA0004FF41F018160FFF78BFF05494FF0006095
:100AB000086010BD001002400000FFF8FFFFF6FEC6
:100AC00008ED00E04FF08040018AC90707D0018A95
:100AD00021F00101018202480168491C0160704750
:100AE000040000200E48C16941F00101C1614721A5
:100AF0008004018540F2E73181850021818481896C
:100B000041F001018181018841F001010180054925
:100B1000102008704FF0E0210006C1F80001704776
:100B2000001002401CE400E030B585B001218803CC
:100B3000FFF7E2FE4FF4E13001900024ADF80840E9
:100B4000ADF80A40ADF80C40ADF810400C20ADF8FF
:100B50000E000F4D01A9284600F026F9012240F2AF
:100B60002551284600F005F925218DF800100121B6
:100B70008DF801108DF802408DF803106846FFF7DC
:100B80005BFE0121284600F0C1F805B030BD000031
:100B90000038014070B5174D40F22551284600F04D
:100BA000C8F800281AD0284600F05CF9C4B28021A9
:100BB000284600F0B7F80028F9D02146284600F072
:100BC00055F90D4B0D490D2C09D00A2C07D008788A
:100BD0007F2803D20878421C0A701C5470BD087824
:100BE0000028FBD00A780020985408700120487033
:100BF00070BD0000003801402000002008000020E7
:100C000030B585B001214804FFF768FE4FF4E130AC
:100C100001900024ADF80840ADF80A40ADF80C4052
:100C2000ADF810400C20ADF80E000F4D01A928467C
:100C300000F0BAF8012240F22551284600F099F858
:100C400026218DF800108DF801408DF80240012119
:100C50008DF803106846FFF7EFFD0121284600F0EC
:100C600055F805B030BD00000044004070B5244C7C
:100C700040F22551204600F05CF800283ED0204686
:100C800000F0F0F8C3B21F4DAA780AB9AA2B35D1EB
:100C9000501C1D49C0B2A8708B540026032829D3CC
:100CA0008A78531DDBB2984224D101F18004087880
:100CB000207048786070A270C91CE01CFFF7D3FA5E
:100CC000A178E01C0E54A078A4F17D01415C84F869
:100CD0004310A4F17C01405C84F84400AE705528B8
:100CE00008D12046FFF73AFD94F84310884201D11D
:100CF0000120E870A878802800D3AE7070BD000095
:100D00000044004008000020A0000020002904D07A
:100D1000818941F4005181817047818921F400511A
:100D2000818170470246002012880A4200D00120CB
:100D3000704770B5002440F66A12C1F3421301F007
:100D40001F05012606FA05F2012B0CD0022B0DD04F
:100D5000838A1340090A8E40008830400BB100B1ED
:100D60000124204670BD83891340F3E7038A1340B2
:100D7000F0E710B540F66A13C1F3421301F01F0407
:100D80000121A140012B07D0022B07D014303AB12A
:100D900002680A43026010BD0C30F8E71030F6E735
:100DA00002688A43026010BD30B585B004460D4626
:100DB000208A4CF6FF710840E98801432182A0890E
:100DC0004EF6F3110840A9882A8911436A89024323
:100DD0001143A181A08A4FF6FF410840A989014330
:100DE000A1826846FFF796FD1D48844201D1039811
:100DF00000E00298A189090408D500EBC00101EBCD
:100E0000001029684900B0FBF1F007E000EBC001D9
:100E100001EB001029688900B0FBF1F06422B0FBFF
:100E2000F2F109010B096FF018056B4300EB830029
:100E3000A3891D044FF0320307D503EBC000B0FBBC
:100E4000F2F000F00700084306E003EB0010B0FBEF
:100E5000F2F000F00F000843208105B030BD000023
:100E6000003801408088C0F308007047C1F30801D2
:100E7000818070472DE9F04706460F464FF08048C5
:100E8000B8F824404FF48059C4F57A75DFF82CA0E7
:100E90000CE0B8F82420A24201D3101B00E0A818EF
:100EA00080B2B84202D30020BDE8F08749465046E0
:100EB000FFF735FCB042ECD10120F5E7000C014012
:100EC000FCB50022002700290ED007DA4FF02D03D1
:100ED0004FF001020370C1F1000109B24FF00003AD
:100EE0006E464FF00A0413E04FF030010170477076
:100EF000FCBD91FBF4F504FB15159C4605F130058E
:100F000003F10103DBB206F80C5091FBF4F109B2D6
:100F10000029EEDC5B1E59B206E01346745C521CDD
:100F2000D2B2C454491E49B20029F6DA8754FCBD36
:100F3000BCB0FFF76FFBFFF7F7FDFFF761FEFFF7B0
:100F4000D1FDFFF785FA38A0FFF7BEFC3CA0FFF704
:100F5000BBFC414D4FF4005418AE18A8FFF70CFC31
:100F60000028FAD09DF862200DF163000021115491
:100F70009DF8610002283CD00128EED137A0FFF790
:100F80008DFCF01CFFF7A0FCFFF780FA3948B0F9A0
:100F9000001002A8FFF794FF3748B0F90010684628
:100FA000FFF78EFF35A104A8FFF70EF902A904A8E8
:100FB000FFF74DF93AA104A8FFF749F9694604A8DB
:100FC000FFF745F938A104A8FFF741F904A8FFF796
:100FD0001FF9C3B204AA01212AA8FFF7ABFB2AA874
:100FE000FFF7DEFB31A0FFF759FC04A8FFF76CFC0C
:100FF000B3E732A1F01CFFF77BF968B131A1F01C17
:10100000FFF776F90028A8D121462846FFF790FB84
:101010002EA0FFF759FCA0E721462846FFF786FBE4
:1010200036A0FFF751FC98E753544D3332204E6FF2
:1010300064652032202D20524541445900000000B3
:1010400053696E68207669656E3A204C696E682037
:101050002D20445431373700001001405B52583C7A
:101060002D45535033325D204E683F6E204C7578CD
:101070003A20000000000020020000205068616E4D
:1010800020686F69207475204E6F64652032207669
:1010900065204E6F646520313A20543A000000000C
:1010A0004320483A00000000250000005B54582D02
:1010B0003E45535033325D20000000004C45445FF4
:1010C0004F4E00004C45445F4F4646003E3E205B7D
:1010D0004E483F4E204C3F4E482045535033325DE2
:1010E000202D3E20D0E320543F5420D0C84E204C29
:1010F0004544202850433133292100003E3E205BE7
:101100004E483F4E204C3F4E482045535033325DB1
:10111000202D3E20D0E320423F5420D0C84E204C0A
:1011200045442028504331332921000001480068FC
:101130007047000004000020581100080000002043
:10114000200000002801000878110008200000207D
:10115000A807000044010008000000000000000093
:101160000000000002040608000000000102030461
:0811700001020304060708094F
:04000005080000ED02
:00000001FF
